{
  "contractName": "StarNotary",
  "abi": [
    {
      "inputs": [],
      "stateMutability": "nonpayable",
      "type": "constructor"
    },
    {
      "anonymous": false,
      "inputs": [
        {
          "indexed": true,
          "internalType": "address",
          "name": "owner",
          "type": "address"
        },
        {
          "indexed": true,
          "internalType": "address",
          "name": "approved",
          "type": "address"
        },
        {
          "indexed": true,
          "internalType": "uint256",
          "name": "tokenId",
          "type": "uint256"
        }
      ],
      "name": "Approval",
      "type": "event"
    },
    {
      "anonymous": false,
      "inputs": [
        {
          "indexed": true,
          "internalType": "address",
          "name": "owner",
          "type": "address"
        },
        {
          "indexed": true,
          "internalType": "address",
          "name": "operator",
          "type": "address"
        },
        {
          "indexed": false,
          "internalType": "bool",
          "name": "approved",
          "type": "bool"
        }
      ],
      "name": "ApprovalForAll",
      "type": "event"
    },
    {
      "anonymous": false,
      "inputs": [
        {
          "indexed": true,
          "internalType": "address",
          "name": "from",
          "type": "address"
        },
        {
          "indexed": true,
          "internalType": "address",
          "name": "to",
          "type": "address"
        },
        {
          "indexed": true,
          "internalType": "uint256",
          "name": "tokenId",
          "type": "uint256"
        }
      ],
      "name": "Transfer",
      "type": "event"
    },
    {
      "inputs": [
        {
          "internalType": "address",
          "name": "to",
          "type": "address"
        },
        {
          "internalType": "uint256",
          "name": "tokenId",
          "type": "uint256"
        }
      ],
      "name": "approve",
      "outputs": [],
      "stateMutability": "nonpayable",
      "type": "function"
    },
    {
      "inputs": [
        {
          "internalType": "address",
          "name": "owner",
          "type": "address"
        }
      ],
      "name": "balanceOf",
      "outputs": [
        {
          "internalType": "uint256",
          "name": "",
          "type": "uint256"
        }
      ],
      "stateMutability": "view",
      "type": "function",
      "constant": true
    },
    {
      "inputs": [
        {
          "internalType": "uint256",
          "name": "tokenId",
          "type": "uint256"
        }
      ],
      "name": "getApproved",
      "outputs": [
        {
          "internalType": "address",
          "name": "",
          "type": "address"
        }
      ],
      "stateMutability": "view",
      "type": "function",
      "constant": true
    },
    {
      "inputs": [
        {
          "internalType": "address",
          "name": "owner",
          "type": "address"
        },
        {
          "internalType": "address",
          "name": "operator",
          "type": "address"
        }
      ],
      "name": "isApprovedForAll",
      "outputs": [
        {
          "internalType": "bool",
          "name": "",
          "type": "bool"
        }
      ],
      "stateMutability": "view",
      "type": "function",
      "constant": true
    },
    {
      "inputs": [],
      "name": "name",
      "outputs": [
        {
          "internalType": "string",
          "name": "",
          "type": "string"
        }
      ],
      "stateMutability": "view",
      "type": "function",
      "constant": true
    },
    {
      "inputs": [
        {
          "internalType": "uint256",
          "name": "tokenId",
          "type": "uint256"
        }
      ],
      "name": "ownerOf",
      "outputs": [
        {
          "internalType": "address",
          "name": "",
          "type": "address"
        }
      ],
      "stateMutability": "view",
      "type": "function",
      "constant": true
    },
    {
      "inputs": [
        {
          "internalType": "address",
          "name": "from",
          "type": "address"
        },
        {
          "internalType": "address",
          "name": "to",
          "type": "address"
        },
        {
          "internalType": "uint256",
          "name": "tokenId",
          "type": "uint256"
        }
      ],
      "name": "safeTransferFrom",
      "outputs": [],
      "stateMutability": "nonpayable",
      "type": "function"
    },
    {
      "inputs": [
        {
          "internalType": "address",
          "name": "from",
          "type": "address"
        },
        {
          "internalType": "address",
          "name": "to",
          "type": "address"
        },
        {
          "internalType": "uint256",
          "name": "tokenId",
          "type": "uint256"
        },
        {
          "internalType": "bytes",
          "name": "_data",
          "type": "bytes"
        }
      ],
      "name": "safeTransferFrom",
      "outputs": [],
      "stateMutability": "nonpayable",
      "type": "function"
    },
    {
      "inputs": [
        {
          "internalType": "address",
          "name": "operator",
          "type": "address"
        },
        {
          "internalType": "bool",
          "name": "approved",
          "type": "bool"
        }
      ],
      "name": "setApprovalForAll",
      "outputs": [],
      "stateMutability": "nonpayable",
      "type": "function"
    },
    {
      "inputs": [
        {
          "internalType": "uint256",
          "name": "",
          "type": "uint256"
        }
      ],
      "name": "starsForSale",
      "outputs": [
        {
          "internalType": "uint256",
          "name": "",
          "type": "uint256"
        }
      ],
      "stateMutability": "view",
      "type": "function",
      "constant": true
    },
    {
      "inputs": [
        {
          "internalType": "bytes4",
          "name": "interfaceId",
          "type": "bytes4"
        }
      ],
      "name": "supportsInterface",
      "outputs": [
        {
          "internalType": "bool",
          "name": "",
          "type": "bool"
        }
      ],
      "stateMutability": "view",
      "type": "function",
      "constant": true
    },
    {
      "inputs": [],
      "name": "symbol",
      "outputs": [
        {
          "internalType": "string",
          "name": "",
          "type": "string"
        }
      ],
      "stateMutability": "view",
      "type": "function",
      "constant": true
    },
    {
      "inputs": [
        {
          "internalType": "uint256",
          "name": "",
          "type": "uint256"
        }
      ],
      "name": "tokenIdToStarInfo",
      "outputs": [
        {
          "internalType": "string",
          "name": "name",
          "type": "string"
        }
      ],
      "stateMutability": "view",
      "type": "function",
      "constant": true
    },
    {
      "inputs": [
        {
          "internalType": "uint256",
          "name": "tokenId",
          "type": "uint256"
        }
      ],
      "name": "tokenURI",
      "outputs": [
        {
          "internalType": "string",
          "name": "",
          "type": "string"
        }
      ],
      "stateMutability": "view",
      "type": "function",
      "constant": true
    },
    {
      "inputs": [
        {
          "internalType": "address",
          "name": "from",
          "type": "address"
        },
        {
          "internalType": "address",
          "name": "to",
          "type": "address"
        },
        {
          "internalType": "uint256",
          "name": "tokenId",
          "type": "uint256"
        }
      ],
      "name": "transferFrom",
      "outputs": [],
      "stateMutability": "nonpayable",
      "type": "function"
    },
    {
      "inputs": [
        {
          "internalType": "string",
          "name": "_name",
          "type": "string"
        },
        {
          "internalType": "uint256",
          "name": "_tokenId",
          "type": "uint256"
        }
      ],
      "name": "createStar",
      "outputs": [],
      "stateMutability": "nonpayable",
      "type": "function"
    },
    {
      "inputs": [
        {
          "internalType": "uint256",
          "name": "_tokenId",
          "type": "uint256"
        },
        {
          "internalType": "uint256",
          "name": "_price",
          "type": "uint256"
        }
      ],
      "name": "putStarUpForSale",
      "outputs": [],
      "stateMutability": "nonpayable",
      "type": "function"
    },
    {
      "inputs": [
        {
          "internalType": "uint256",
          "name": "_tokenId",
          "type": "uint256"
        }
      ],
      "name": "buyStar",
      "outputs": [],
      "stateMutability": "payable",
      "type": "function",
      "payable": true
    },
    {
      "inputs": [
        {
          "internalType": "uint256",
          "name": "_tokenId",
          "type": "uint256"
        }
      ],
      "name": "lookUptokenIdToStarInfo",
      "outputs": [
        {
          "internalType": "string",
          "name": "",
          "type": "string"
        }
      ],
      "stateMutability": "view",
      "type": "function",
      "constant": true
    },
    {
      "inputs": [
        {
          "internalType": "uint256",
          "name": "_tokenId1",
          "type": "uint256"
        },
        {
          "internalType": "uint256",
          "name": "_tokenId2",
          "type": "uint256"
        }
      ],
      "name": "exchangeStars",
      "outputs": [],
      "stateMutability": "nonpayable",
      "type": "function"
    },
    {
      "inputs": [
        {
          "internalType": "address",
          "name": "_to1",
          "type": "address"
        },
        {
          "internalType": "uint256",
          "name": "_tokenId",
          "type": "uint256"
        }
      ],
      "name": "transferStar",
      "outputs": [],
      "stateMutability": "nonpayable",
      "type": "function"
    }
  ],
  "bytecode": "0x60806040523480156200001157600080fd5b506040518060400160405280600a81526020017f537461724e6f74617279000000000000000000000000000000000000000000008152506040518060400160405280600481526020017f5354415200000000000000000000000000000000000000000000000000000000815250816000908051906020019062000096929190620000b8565b508060019080519060200190620000af929190620000b8565b505050620001cd565b828054620000c69062000168565b90600052602060002090601f016020900481019282620000ea576000855562000136565b82601f106200010557805160ff191683800117855562000136565b8280016001018555821562000136579182015b828111156200013557825182559160200191906001019062000118565b5b50905062000145919062000149565b5090565b5b80821115620001645760008160009055506001016200014a565b5090565b600060028204905060018216806200018157607f821691505b602082108114156200019857620001976200019e565b5b50919050565b7f4e487b7100000000000000000000000000000000000000000000000000000000600052602260045260246000fd5b612fd980620001dd6000396000f3fe60806040526004361061012a5760003560e01c806342842e0e116100ab578063a22cb4651161006f578063a22cb46514610405578063b88d4fde1461042e578063c87b56dd14610457578063d7830ccb14610494578063e7152a5c146104d1578063e985e9c5146104fa5761012a565b806342842e0e1461030e5780636352211e1461033757806370a082311461037457806395d89b41146103b15780639697c0a1146103dc5761012a565b806315e0afa5116100f257806315e0afa51461023a5780631967fd981461026357806323b872dd146102a05780632f1c34ef146102c9578063316a4361146102e55761012a565b806301ffc9a71461012f5780630564b1301461016c57806306fdde03146101a9578063081812fc146101d4578063095ea7b314610211575b600080fd5b34801561013b57600080fd5b50610156600480360381019061015191906120a3565b610537565b6040516101639190612911565b60405180910390f35b34801561017857600080fd5b50610193600480360381019061018e9190612149565b610619565b6040516101a09190612b6e565b60405180910390f35b3480156101b557600080fd5b506101be610631565b6040516101cb919061292c565b60405180910390f35b3480156101e057600080fd5b506101fb60048036038101906101f69190612149565b6106c3565b60405161020891906128aa565b60405180910390f35b34801561021d57600080fd5b5061023860048036038101906102339190612067565b610748565b005b34801561024657600080fd5b50610261600480360381019061025c9190612172565b610860565b005b34801561026f57600080fd5b5061028a60048036038101906102859190612149565b610904565b604051610297919061292c565b60405180910390f35b3480156102ac57600080fd5b506102c760048036038101906102c29190611f61565b6109aa565b005b6102e360048036038101906102de9190612149565b610a0a565b005b3480156102f157600080fd5b5061030c60048036038101906103079190612172565b610b87565b005b34801561031a57600080fd5b5061033560048036038101906103309190611f61565b610c19565b005b34801561034357600080fd5b5061035e60048036038101906103599190612149565b610c39565b60405161036b91906128aa565b60405180910390f35b34801561038057600080fd5b5061039b60048036038101906103969190611efc565b610ceb565b6040516103a89190612b6e565b60405180910390f35b3480156103bd57600080fd5b506103c6610da3565b6040516103d3919061292c565b60405180910390f35b3480156103e857600080fd5b5061040360048036038101906103fe91906120f5565b610e35565b005b34801561041157600080fd5b5061042c6004803603810190610427919061202b565b610e8b565b005b34801561043a57600080fd5b5061045560048036038101906104509190611fb0565b610ea1565b005b34801561046357600080fd5b5061047e60048036038101906104799190612149565b610f03565b60405161048b919061292c565b60405180910390f35b3480156104a057600080fd5b506104bb60048036038101906104b69190612149565b610faa565b6040516104c8919061292c565b60405180910390f35b3480156104dd57600080fd5b506104f860048036038101906104f39190612067565b611052565b005b34801561050657600080fd5b50610521600480360381019061051c9190611f25565b6110a7565b60405161052e9190612911565b60405180910390f35b60007f80ac58cd000000000000000000000000000000000000000000000000000000007bffffffffffffffffffffffffffffffffffffffffffffffffffffffff1916827bffffffffffffffffffffffffffffffffffffffffffffffffffffffff1916148061060257507f5b5e139f000000000000000000000000000000000000000000000000000000007bffffffffffffffffffffffffffffffffffffffffffffffffffffffff1916827bffffffffffffffffffffffffffffffffffffffffffffffffffffffff1916145b8061061257506106118261113b565b5b9050919050565b60076020528060005260406000206000915090505481565b60606000805461064090612dce565b80601f016020809104026020016040519081016040528092919081815260200182805461066c90612dce565b80156106b95780601f1061068e576101008083540402835291602001916106b9565b820191906000526020600020905b81548152906001019060200180831161069c57829003601f168201915b5050505050905090565b60006106ce826111a5565b61070d576040517f08c379a000000000000000000000000000000000000000000000000000000000815260040161070490612a8e565b60405180910390fd5b6004600083815260200190815260200160002060009054906101000a900473ffffffffffffffffffffffffffffffffffffffff169050919050565b600061075382610c39565b90508073ffffffffffffffffffffffffffffffffffffffff168373ffffffffffffffffffffffffffffffffffffffff1614156107c4576040517f08c379a00000000000000000000000000000000000000000000000000000000081526004016107bb90612b0e565b60405180910390fd5b8073ffffffffffffffffffffffffffffffffffffffff166107e3611211565b73ffffffffffffffffffffffffffffffffffffffff16148061081257506108118161080c611211565b6110a7565b5b610851576040517f08c379a000000000000000000000000000000000000000000000000000000000815260040161084890612a0e565b60405180910390fd5b61085b8383611219565b505050565b600061086b83610c39565b9050600061087883610c39565b90503373ffffffffffffffffffffffffffffffffffffffff168273ffffffffffffffffffffffffffffffffffffffff1614806108df57503373ffffffffffffffffffffffffffffffffffffffff168173ffffffffffffffffffffffffffffffffffffffff16145b6108e857600080fd5b6108f38282866112d2565b6108fe8183856112d2565b50505050565b600660205280600052604060002060009150905080600001805461092790612dce565b80601f016020809104026020016040519081016040528092919081815260200182805461095390612dce565b80156109a05780601f10610975576101008083540402835291602001916109a0565b820191906000526020600020905b81548152906001019060200180831161098357829003601f168201915b5050505050905081565b6109bb6109b5611211565b8261152e565b6109fa576040517f08c379a00000000000000000000000000000000000000000000000000000000081526004016109f190612b4e565b60405180910390fd5b610a058383836112d2565b505050565b6000600760008381526020019081526020016000205411610a60576040517f08c379a0000000000000000000000000000000000000000000000000000000008152600401610a5790612b2e565b60405180910390fd5b6000600760008381526020019081526020016000205490506000610a8383610c39565b9050813411610ac7576040517f08c379a0000000000000000000000000000000000000000000000000000000008152600401610abe90612aee565b60405180910390fd5b610ad28133856112d2565b6000610add8261160c565b90508073ffffffffffffffffffffffffffffffffffffffff166108fc849081150290604051600060405180830381858888f19350505050158015610b25573d6000803e3d6000fd5b5082341115610b81573373ffffffffffffffffffffffffffffffffffffffff166108fc8434610b549190612ce4565b9081150290604051600060405180830381858888f19350505050158015610b7f573d6000803e3d6000fd5b505b50505050565b3373ffffffffffffffffffffffffffffffffffffffff16610ba783610c39565b73ffffffffffffffffffffffffffffffffffffffff1614610bfd576040517f08c379a0000000000000000000000000000000000000000000000000000000008152600401610bf49061294e565b60405180910390fd5b8060076000848152602001908152602001600020819055505050565b610c3483838360405180602001604052806000815250610ea1565b505050565b6000806002600084815260200190815260200160002060009054906101000a900473ffffffffffffffffffffffffffffffffffffffff169050600073ffffffffffffffffffffffffffffffffffffffff168173ffffffffffffffffffffffffffffffffffffffff161415610ce2576040517f08c379a0000000000000000000000000000000000000000000000000000000008152600401610cd990612a4e565b60405180910390fd5b80915050919050565b60008073ffffffffffffffffffffffffffffffffffffffff168273ffffffffffffffffffffffffffffffffffffffff161415610d5c576040517f08c379a0000000000000000000000000000000000000000000000000000000008152600401610d5390612a2e565b60405180910390fd5b600360008373ffffffffffffffffffffffffffffffffffffffff1673ffffffffffffffffffffffffffffffffffffffff168152602001908152602001600020549050919050565b606060018054610db290612dce565b80601f0160208091040260200160405190810160405280929190818152602001828054610dde90612dce565b8015610e2b5780601f10610e0057610100808354040283529160200191610e2b565b820191906000526020600020905b815481529060010190602001808311610e0e57829003601f168201915b5050505050905090565b6000604051806020016040528084815250905080600660008481526020019081526020016000206000820151816000019080519060200190610e78929190611d20565b50905050610e863383611616565b505050565b610e9d610e96611211565b83836117e4565b5050565b610eb2610eac611211565b8361152e565b610ef1576040517f08c379a0000000000000000000000000000000000000000000000000000000008152600401610ee890612b4e565b60405180910390fd5b610efd84848484611951565b50505050565b6060610f0e826111a5565b610f4d576040517f08c379a0000000000000000000000000000000000000000000000000000000008152600401610f4490612ace565b60405180910390fd5b6000610f576119ad565b90506000815111610f775760405180602001604052806000815250610fa2565b80610f81846119c4565b604051602001610f92929190612886565b6040516020818303038152906040525b915050919050565b6060600660008381526020019081526020016000206000018054610fcd90612dce565b80601f0160208091040260200160405190810160405280929190818152602001828054610ff990612dce565b80156110465780601f1061101b57610100808354040283529160200191611046565b820191906000526020600020905b81548152906001019060200180831161102957829003601f168201915b50505050509050919050565b600061105d82610c39565b90508073ffffffffffffffffffffffffffffffffffffffff163373ffffffffffffffffffffffffffffffffffffffff161461109757600080fd5b6110a23384846109aa565b505050565b6000600560008473ffffffffffffffffffffffffffffffffffffffff1673ffffffffffffffffffffffffffffffffffffffff16815260200190815260200160002060008373ffffffffffffffffffffffffffffffffffffffff1673ffffffffffffffffffffffffffffffffffffffff16815260200190815260200160002060009054906101000a900460ff16905092915050565b60007f01ffc9a7000000000000000000000000000000000000000000000000000000007bffffffffffffffffffffffffffffffffffffffffffffffffffffffff1916827bffffffffffffffffffffffffffffffffffffffffffffffffffffffff1916149050919050565b60008073ffffffffffffffffffffffffffffffffffffffff166002600084815260200190815260200160002060009054906101000a900473ffffffffffffffffffffffffffffffffffffffff1673ffffffffffffffffffffffffffffffffffffffff1614159050919050565b600033905090565b816004600083815260200190815260200160002060006101000a81548173ffffffffffffffffffffffffffffffffffffffff021916908373ffffffffffffffffffffffffffffffffffffffff160217905550808273ffffffffffffffffffffffffffffffffffffffff1661128c83610c39565b73ffffffffffffffffffffffffffffffffffffffff167f8c5be1e5ebec7d5bd14f71427d1e84f3dd0314c0f7b2291e5b200ac8c7c3b92560405160405180910390a45050565b8273ffffffffffffffffffffffffffffffffffffffff166112f282610c39565b73ffffffffffffffffffffffffffffffffffffffff1614611348576040517f08c379a000000000000000000000000000000000000000000000000000000000815260040161133f90612aae565b60405180910390fd5b600073ffffffffffffffffffffffffffffffffffffffff168273ffffffffffffffffffffffffffffffffffffffff1614156113b8576040517f08c379a00000000000000000000000000000000000000000000000000000000081526004016113af906129ae565b60405180910390fd5b6113c3838383611b71565b6113ce600082611219565b6001600360008573ffffffffffffffffffffffffffffffffffffffff1673ffffffffffffffffffffffffffffffffffffffff168152602001908152602001600020600082825461141e9190612ce4565b925050819055506001600360008473ffffffffffffffffffffffffffffffffffffffff1673ffffffffffffffffffffffffffffffffffffffff16815260200190815260200160002060008282546114759190612c5d565b92505081905550816002600083815260200190815260200160002060006101000a81548173ffffffffffffffffffffffffffffffffffffffff021916908373ffffffffffffffffffffffffffffffffffffffff160217905550808273ffffffffffffffffffffffffffffffffffffffff168473ffffffffffffffffffffffffffffffffffffffff167fddf252ad1be2c89b69c2b068fc378daa952ba7f163c4a11628f55a4df523b3ef60405160405180910390a4505050565b6000611539826111a5565b611578576040517f08c379a000000000000000000000000000000000000000000000000000000000815260040161156f906129ee565b60405180910390fd5b600061158383610c39565b90508073ffffffffffffffffffffffffffffffffffffffff168473ffffffffffffffffffffffffffffffffffffffff1614806115f257508373ffffffffffffffffffffffffffffffffffffffff166115da846106c3565b73ffffffffffffffffffffffffffffffffffffffff16145b80611603575061160281856110a7565b5b91505092915050565b6000819050919050565b600073ffffffffffffffffffffffffffffffffffffffff168273ffffffffffffffffffffffffffffffffffffffff161415611686576040517f08c379a000000000000000000000000000000000000000000000000000000000815260040161167d90612a6e565b60405180910390fd5b61168f816111a5565b156116cf576040517f08c379a00000000000000000000000000000000000000000000000000000000081526004016116c69061298e565b60405180910390fd5b6116db60008383611b71565b6001600360008473ffffffffffffffffffffffffffffffffffffffff1673ffffffffffffffffffffffffffffffffffffffff168152602001908152602001600020600082825461172b9190612c5d565b92505081905550816002600083815260200190815260200160002060006101000a81548173ffffffffffffffffffffffffffffffffffffffff021916908373ffffffffffffffffffffffffffffffffffffffff160217905550808273ffffffffffffffffffffffffffffffffffffffff16600073ffffffffffffffffffffffffffffffffffffffff167fddf252ad1be2c89b69c2b068fc378daa952ba7f163c4a11628f55a4df523b3ef60405160405180910390a45050565b8173ffffffffffffffffffffffffffffffffffffffff168373ffffffffffffffffffffffffffffffffffffffff161415611853576040517f08c379a000000000000000000000000000000000000000000000000000000000815260040161184a906129ce565b60405180910390fd5b80600560008573ffffffffffffffffffffffffffffffffffffffff1673ffffffffffffffffffffffffffffffffffffffff16815260200190815260200160002060008473ffffffffffffffffffffffffffffffffffffffff1673ffffffffffffffffffffffffffffffffffffffff16815260200190815260200160002060006101000a81548160ff0219169083151502179055508173ffffffffffffffffffffffffffffffffffffffff168373ffffffffffffffffffffffffffffffffffffffff167f17307eab39ab6107e8899845ad3d59bd9653f200f220920489ca2b5937696c31836040516119449190612911565b60405180910390a3505050565b61195c8484846112d2565b61196884848484611b76565b6119a7576040517f08c379a000000000000000000000000000000000000000000000000000000000815260040161199e9061296e565b60405180910390fd5b50505050565b606060405180602001604052806000815250905090565b60606000821415611a0c576040518060400160405280600181526020017f30000000000000000000000000000000000000000000000000000000000000008152509050611b6c565b600082905060005b60008214611a3e578080611a2790612e00565b915050600a82611a379190612cb3565b9150611a14565b60008167ffffffffffffffff811115611a80577f4e487b7100000000000000000000000000000000000000000000000000000000600052604160045260246000fd5b6040519080825280601f01601f191660200182016040528015611ab25781602001600182028036833780820191505090505b5090505b60008514611b6557600182611acb9190612ce4565b9150600a85611ada9190612e49565b6030611ae69190612c5d565b60f81b818381518110611b22577f4e487b7100000000000000000000000000000000000000000000000000000000600052603260045260246000fd5b60200101907effffffffffffffffffffffffffffffffffffffffffffffffffffffffffffff1916908160001a905350600a85611b5e9190612cb3565b9450611ab6565b8093505050505b919050565b505050565b6000611b978473ffffffffffffffffffffffffffffffffffffffff16611d0d565b15611d00578373ffffffffffffffffffffffffffffffffffffffff1663150b7a02611bc0611211565b8786866040518563ffffffff1660e01b8152600401611be294939291906128c5565b602060405180830381600087803b158015611bfc57600080fd5b505af1925050508015611c2d57506040513d601f19601f82011682018060405250810190611c2a91906120cc565b60015b611cb0573d8060008114611c5d576040519150601f19603f3d011682016040523d82523d6000602084013e611c62565b606091505b50600081511415611ca8576040517f08c379a0000000000000000000000000000000000000000000000000000000008152600401611c9f9061296e565b60405180910390fd5b805181602001fd5b63150b7a0260e01b7bffffffffffffffffffffffffffffffffffffffffffffffffffffffff1916817bffffffffffffffffffffffffffffffffffffffffffffffffffffffff191614915050611d05565b600190505b949350505050565b600080823b905060008111915050919050565b828054611d2c90612dce565b90600052602060002090601f016020900481019282611d4e5760008555611d95565b82601f10611d6757805160ff1916838001178555611d95565b82800160010185558215611d95579182015b82811115611d94578251825591602001919060010190611d79565b5b509050611da29190611da6565b5090565b5b80821115611dbf576000816000905550600101611da7565b5090565b6000611dd6611dd184612bba565b612b89565b905082815260208101848484011115611dee57600080fd5b611df9848285612d8c565b509392505050565b6000611e14611e0f84612bea565b612b89565b905082815260208101848484011115611e2c57600080fd5b611e37848285612d8c565b509392505050565b600081359050611e4e81612f47565b92915050565b600081359050611e6381612f5e565b92915050565b600081359050611e7881612f75565b92915050565b600081519050611e8d81612f75565b92915050565b600082601f830112611ea457600080fd5b8135611eb4848260208601611dc3565b91505092915050565b600082601f830112611ece57600080fd5b8135611ede848260208601611e01565b91505092915050565b600081359050611ef681612f8c565b92915050565b600060208284031215611f0e57600080fd5b6000611f1c84828501611e3f565b91505092915050565b60008060408385031215611f3857600080fd5b6000611f4685828601611e3f565b9250506020611f5785828601611e3f565b9150509250929050565b600080600060608486031215611f7657600080fd5b6000611f8486828701611e3f565b9350506020611f9586828701611e3f565b9250506040611fa686828701611ee7565b9150509250925092565b60008060008060808587031215611fc657600080fd5b6000611fd487828801611e3f565b9450506020611fe587828801611e3f565b9350506040611ff687828801611ee7565b925050606085013567ffffffffffffffff81111561201357600080fd5b61201f87828801611e93565b91505092959194509250565b6000806040838503121561203e57600080fd5b600061204c85828601611e3f565b925050602061205d85828601611e54565b9150509250929050565b6000806040838503121561207a57600080fd5b600061208885828601611e3f565b925050602061209985828601611ee7565b9150509250929050565b6000602082840312156120b557600080fd5b60006120c384828501611e69565b91505092915050565b6000602082840312156120de57600080fd5b60006120ec84828501611e7e565b91505092915050565b6000806040838503121561210857600080fd5b600083013567ffffffffffffffff81111561212257600080fd5b61212e85828601611ebd565b925050602061213f85828601611ee7565b9150509250929050565b60006020828403121561215b57600080fd5b600061216984828501611ee7565b91505092915050565b6000806040838503121561218557600080fd5b600061219385828601611ee7565b92505060206121a485828601611ee7565b9150509250929050565b6121b781612d18565b82525050565b6121c681612d2a565b82525050565b60006121d782612c1a565b6121e18185612c30565b93506121f1818560208601612d9b565b6121fa81612f36565b840191505092915050565b600061221082612c25565b61221a8185612c41565b935061222a818560208601612d9b565b61223381612f36565b840191505092915050565b600061224982612c25565b6122538185612c52565b9350612263818560208601612d9b565b80840191505092915050565b600061227c602783612c41565b91507f596f752063616e27742073616c6520746865205374617220796f7520646f6e2760008301527f74206f776e6564000000000000000000000000000000000000000000000000006020830152604082019050919050565b60006122e2603283612c41565b91507f4552433732313a207472616e7366657220746f206e6f6e20455243373231526560008301527f63656976657220696d706c656d656e74657200000000000000000000000000006020830152604082019050919050565b6000612348601c83612c41565b91507f4552433732313a20746f6b656e20616c7265616479206d696e746564000000006000830152602082019050919050565b6000612388602483612c41565b91507f4552433732313a207472616e7366657220746f20746865207a65726f2061646460008301527f72657373000000000000000000000000000000000000000000000000000000006020830152604082019050919050565b60006123ee601983612c41565b91507f4552433732313a20617070726f766520746f2063616c6c6572000000000000006000830152602082019050919050565b600061242e602c83612c41565b91507f4552433732313a206f70657261746f7220717565727920666f72206e6f6e657860008301527f697374656e7420746f6b656e00000000000000000000000000000000000000006020830152604082019050919050565b6000612494603883612c41565b91507f4552433732313a20617070726f76652063616c6c6572206973206e6f74206f7760008301527f6e6572206e6f7220617070726f76656420666f7220616c6c00000000000000006020830152604082019050919050565b60006124fa602a83612c41565b91507f4552433732313a2062616c616e636520717565727920666f7220746865207a6560008301527f726f2061646472657373000000000000000000000000000000000000000000006020830152604082019050919050565b6000612560602983612c41565b91507f4552433732313a206f776e657220717565727920666f72206e6f6e657869737460008301527f656e7420746f6b656e00000000000000000000000000000000000000000000006020830152604082019050919050565b60006125c6602083612c41565b91507f4552433732313a206d696e7420746f20746865207a65726f20616464726573736000830152602082019050919050565b6000612606602c83612c41565b91507f4552433732313a20617070726f76656420717565727920666f72206e6f6e657860008301527f697374656e7420746f6b656e00000000000000000000000000000000000000006020830152604082019050919050565b600061266c602983612c41565b91507f4552433732313a207472616e73666572206f6620746f6b656e2074686174206960008301527f73206e6f74206f776e00000000000000000000000000000000000000000000006020830152604082019050919050565b60006126d2602f83612c41565b91507f4552433732314d657461646174613a2055524920717565727920666f72206e6f60008301527f6e6578697374656e7420746f6b656e00000000000000000000000000000000006020830152604082019050919050565b6000612738601d83612c41565b91507f596f75206e65656420746f206861766520656e6f7567682045746865720000006000830152602082019050919050565b6000612778602183612c41565b91507f4552433732313a20617070726f76616c20746f2063757272656e74206f776e6560008301527f72000000000000000000000000000000000000000000000000000000000000006020830152604082019050919050565b60006127de601e83612c41565b91507f54686520537461722073686f756c6420626520757020666f722073616c6500006000830152602082019050919050565b600061281e603183612c41565b91507f4552433732313a207472616e736665722063616c6c6572206973206e6f74206f60008301527f776e6572206e6f7220617070726f7665640000000000000000000000000000006020830152604082019050919050565b61288081612d82565b82525050565b6000612892828561223e565b915061289e828461223e565b91508190509392505050565b60006020820190506128bf60008301846121ae565b92915050565b60006080820190506128da60008301876121ae565b6128e760208301866121ae565b6128f46040830185612877565b818103606083015261290681846121cc565b905095945050505050565b600060208201905061292660008301846121bd565b92915050565b600060208201905081810360008301526129468184612205565b905092915050565b600060208201905081810360008301526129678161226f565b9050919050565b60006020820190508181036000830152612987816122d5565b9050919050565b600060208201905081810360008301526129a78161233b565b9050919050565b600060208201905081810360008301526129c78161237b565b9050919050565b600060208201905081810360008301526129e7816123e1565b9050919050565b60006020820190508181036000830152612a0781612421565b9050919050565b60006020820190508181036000830152612a2781612487565b9050919050565b60006020820190508181036000830152612a47816124ed565b9050919050565b60006020820190508181036000830152612a6781612553565b9050919050565b60006020820190508181036000830152612a87816125b9565b9050919050565b60006020820190508181036000830152612aa7816125f9565b9050919050565b60006020820190508181036000830152612ac78161265f565b9050919050565b60006020820190508181036000830152612ae7816126c5565b9050919050565b60006020820190508181036000830152612b078161272b565b9050919050565b60006020820190508181036000830152612b278161276b565b9050919050565b60006020820190508181036000830152612b47816127d1565b9050919050565b60006020820190508181036000830152612b6781612811565b9050919050565b6000602082019050612b836000830184612877565b92915050565b6000604051905081810181811067ffffffffffffffff82111715612bb057612baf612f07565b5b8060405250919050565b600067ffffffffffffffff821115612bd557612bd4612f07565b5b601f19601f8301169050602081019050919050565b600067ffffffffffffffff821115612c0557612c04612f07565b5b601f19601f8301169050602081019050919050565b600081519050919050565b600081519050919050565b600082825260208201905092915050565b600082825260208201905092915050565b600081905092915050565b6000612c6882612d82565b9150612c7383612d82565b9250827fffffffffffffffffffffffffffffffffffffffffffffffffffffffffffffffff03821115612ca857612ca7612e7a565b5b828201905092915050565b6000612cbe82612d82565b9150612cc983612d82565b925082612cd957612cd8612ea9565b5b828204905092915050565b6000612cef82612d82565b9150612cfa83612d82565b925082821015612d0d57612d0c612e7a565b5b828203905092915050565b6000612d2382612d62565b9050919050565b60008115159050919050565b60007fffffffff0000000000000000000000000000000000000000000000000000000082169050919050565b600073ffffffffffffffffffffffffffffffffffffffff82169050919050565b6000819050919050565b82818337600083830152505050565b60005b83811015612db9578082015181840152602081019050612d9e565b83811115612dc8576000848401525b50505050565b60006002820490506001821680612de657607f821691505b60208210811415612dfa57612df9612ed8565b5b50919050565b6000612e0b82612d82565b91507fffffffffffffffffffffffffffffffffffffffffffffffffffffffffffffffff821415612e3e57612e3d612e7a565b5b600182019050919050565b6000612e5482612d82565b9150612e5f83612d82565b925082612e6f57612e6e612ea9565b5b828206905092915050565b7f4e487b7100000000000000000000000000000000000000000000000000000000600052601160045260246000fd5b7f4e487b7100000000000000000000000000000000000000000000000000000000600052601260045260246000fd5b7f4e487b7100000000000000000000000000000000000000000000000000000000600052602260045260246000fd5b7f4e487b7100000000000000000000000000000000000000000000000000000000600052604160045260246000fd5b6000601f19601f8301169050919050565b612f5081612d18565b8114612f5b57600080fd5b50565b612f6781612d2a565b8114612f7257600080fd5b50565b612f7e81612d36565b8114612f8957600080fd5b50565b612f9581612d82565b8114612fa057600080fd5b5056fea26469706673582212206e431f4f026af4f4f6ed3af8829280c1e8e3042784c1b0611ffca8286473cf3264736f6c63430008000033",
  "immutableReferences": {},
  "source": "pragma solidity >=0.4.24;\n\n//Importing openzeppelin-solidity ERC-721 implemented Standard\nimport \"../node_modules/openzeppelin-solidity/contracts/token/ERC721/ERC721.sol\";\n\n// StarNotary Contract declaration inheritance the ERC721 openzeppelin implementation\ncontract StarNotary is ERC721 {\n\n    constructor() ERC721(\"StarNotary\", \"STAR\") public { }\n\n    // Star data\n    struct Star {\n        string name;\n    }\n\n    // Implement Task 1 Add a name and symbol properties\n    // name: Is a short name to your token\n    // symbol: Is a short string like 'USD' -> 'American Dollar'\n    \n\n    // mapping the Star with the Owner Address\n    mapping(uint256 => Star) public tokenIdToStarInfo;\n    // mapping the TokenId and price\n    mapping(uint256 => uint256) public starsForSale;\n\n    \n    // Create Star using the Struct\n    function createStar(string memory _name, uint256 _tokenId) public { // Passing the name and tokenId as a parameters\n        Star memory newStar = Star(_name); // Star is an struct so we are creating a new Star\n        tokenIdToStarInfo[_tokenId] = newStar; // Creating in memory the Star -> tokenId mapping\n        _mint(msg.sender, _tokenId); // _mint assign the the star with _tokenId to the sender address (ownership)\n    }\n\n    // Putting an Star for sale (Adding the star tokenid into the mapping starsForSale, first verify that the sender is the owner)\n    function putStarUpForSale(uint256 _tokenId, uint256 _price) public {\n        require(ownerOf(_tokenId) == msg.sender, \"You can't sale the Star you don't owned\");\n        starsForSale[_tokenId] = _price;\n    }\n\n\n    // Function that allows you to convert an address into a payable address\n    function _make_payable(address x) internal pure returns (address payable) {\n        return payable(address(uint160(x)));\n    }\n\n    function buyStar(uint256 _tokenId) public  payable {\n        require(starsForSale[_tokenId] > 0, \"The Star should be up for sale\");\n        uint256 starCost = starsForSale[_tokenId];\n        address ownerAddress = ownerOf(_tokenId);\n        require(msg.value > starCost, \"You need to have enough Ether\");\n        _transfer(ownerAddress, msg.sender, _tokenId); // We can't use _addTokenTo or_removeTokenFrom functions, now we have to use _transferFrom\n        address payable ownerAddressPayable = _make_payable(ownerAddress); // We need to make this conversion to be able to use transfer() function to transfer ethers\n        ownerAddressPayable.transfer(starCost);\n        if(msg.value > starCost) {\n            payable(msg.sender).transfer(msg.value - starCost);\n        }\n    }\n\n    // Implement Task 1 lookUptokenIdToStarInfo\n    function lookUptokenIdToStarInfo (uint _tokenId) public view returns (string memory) {\n        return tokenIdToStarInfo[_tokenId].name;\n    }\n\n    // Implement Task 1 Exchange Stars function\n    function exchangeStars(uint256 _tokenId1, uint256 _tokenId2) public {\n        address token1owner = ownerOf(_tokenId1);\n        address token2owner = ownerOf(_tokenId2);\n\n        require(token1owner == msg.sender || token2owner == msg.sender);\n        \n        _transfer(token1owner, token2owner, _tokenId1);\n        _transfer(token2owner, token1owner, _tokenId2);\n    }\n\n    // Implement Task 1 Transfer Stars\n    function transferStar(address _to1, uint256 _tokenId) public {\n        //1. Check if the sender is the ownerOf(_tokenId)\n        address token1owner = ownerOf(_tokenId);\n        require(msg.sender == token1owner);\n\n        //2. Use the transferFrom(from, to, tokenId); function to transfer the Star\n        transferFrom(msg.sender, _to1, _tokenId);\n    }\n\n}",
  "sourcePath": "/Users/nicholaszozaya/Crypto/nd1309-p2-Decentralized-Star-Notary-Service-Starter-Code-main/contracts/StarNotary.sol",
  "compiler": {
    "name": "solc",
    "version": "0.8.0+commit.c7dfd78e.Emscripten.clang"
  },
  "schemaVersion": "3.4.3",
  "updatedAt": "2021-12-16T05:30:06.305Z",
  "networkType": "ethereum",
  "devdoc": {
    "kind": "dev",
    "methods": {
      "approve(address,uint256)": {
        "details": "See {IERC721-approve}."
      },
      "balanceOf(address)": {
        "details": "See {IERC721-balanceOf}."
      },
      "getApproved(uint256)": {
        "details": "See {IERC721-getApproved}."
      },
      "isApprovedForAll(address,address)": {
        "details": "See {IERC721-isApprovedForAll}."
      },
      "name()": {
        "details": "See {IERC721Metadata-name}."
      },
      "ownerOf(uint256)": {
        "details": "See {IERC721-ownerOf}."
      },
      "safeTransferFrom(address,address,uint256)": {
        "details": "See {IERC721-safeTransferFrom}."
      },
      "safeTransferFrom(address,address,uint256,bytes)": {
        "details": "See {IERC721-safeTransferFrom}."
      },
      "setApprovalForAll(address,bool)": {
        "details": "See {IERC721-setApprovalForAll}."
      },
      "supportsInterface(bytes4)": {
        "details": "See {IERC165-supportsInterface}."
      },
      "symbol()": {
        "details": "See {IERC721Metadata-symbol}."
      },
      "tokenURI(uint256)": {
        "details": "See {IERC721Metadata-tokenURI}."
      },
      "transferFrom(address,address,uint256)": {
        "details": "See {IERC721-transferFrom}."
      }
    },
    "version": 1
  },
  "userdoc": {
    "kind": "user",
    "methods": {},
    "version": 1
  }
}